:100000000C942A000C943F000C943F000C943F0089
:100010000C943F000C943F000C943F000C943F0064
:100020000C943F000C943F000C943F000C943F0054
:100030000C943F000C943F000C943F000C943F0044
:100040000C943F000C943F000C943F000C943F0034
:100050000C943F0011241FBECFE5D4E0DEBFCDBF1E
:1000600011E0A0E6B0E0E0E9F1E102C005900D92F8
:10007000A43FB107D9F70E94DA010C94C6080C948A
:10008000000080EF8ABB8FEF8BBB089590E081E08A
:1000900029C047E050E0491B510921E030E002C08F
:1000A000220F331F4A95E2F720952BBB000029B39E
:1000B000322F3F703F30A1F0E3EDF0E33197F1F7DD
:1000C00000C0000023FF11C022FD02C08F5F089511
:1000D00021FD02C08E5F089520FD02C08D5F08954E
:1000E0008C5F9F5F9430A8F280E008950E944600E4
:1000F0008111FCCF83ED90E30197F1F700C0000080
:100100000895CF930E944600C82F8823D9F30E94F8
:1001100076008C2FCF910895E82FF0E0ED59FF4F36
:100120008081089585B3806485BB00C085B38F7BD3
:1001300085BB0895CF93DF93D82F662321F085B335
:10014000806185BB03C085B38F7E85BB85B38F7D02
:1001500085BB84B38F6084BBC5B3C07F8D2F829570
:100160008F708C2B85BB0E949200DF70DC2BD5BB7F
:100170000E949200CF60C5BBDF91CF910895882384
:1001800021F085B3806185BB03C085B38F7E85BBBD
:1001900085B3806285BB84B3807F84BB85B3806474
:1001A00085BB00C093B39295907F85B38F7B85BB51
:1001B00000C085B3806485BB00C083B38F7025B356
:1001C0002F7B25BB892B089580E00E94BF008823E8
:1001D000DCF300C080E00E94BF000895CF93C82FD9
:1001E0000E94E40060E08C2F0E949A00CF91089555
:1001F000611104C080580E94EE00089580540E944E
:10020000EE00089581E00E94EE000895CF93C82F7C
:100210000E94E400CA3049F4803410F480E401C044
:1002200080E080580E94EE0004C061E08C2F0E94A4
:100230009A00CF910895CF93DF93FC0103C00E94F1
:100240000601FE01EF01219680818111F8CFDF9137
:10025000CF9108951F93CF93DF93182F84B38F67A7
:1002600084BB80EA9FE00197F1F785B3826085BB8C
:1002700085B3816085BB0E94920080EE94E0019777
:10028000F1F70E949200C0E1D0E0CE010197F1F7B2
:100290000E949200CE010197F1F785B38E7F85BB56
:1002A0000E9492002197F1F788E20E94EE0088E018
:1002B0000E94EE000E94020186E00E94EE00812F63
:1002C0000E94EE00DF91CF911F91089560E080E0E1
:1002D0000E94F80085E790E00E941B0161E080E049
:1002E0000E94F80085E790E00E941B0108950F939B
:1002F0001F93CF93DF938C01EB010E94660160E0B6
:1003000080E00E94F800C8010E941B0161E080E0CB
:100310000E94F800CE010E941B01DF91CF911F9136
:100320000F9108958A30910578F421E030E0A90119
:1003300002C0440F551F8A95E2F76423752381E0BC
:10034000672B89F480E008950A9721E030E0B90135
:1003500002C0660F771F8A95E2F74623572381E094
:10036000452B09F480E008958A30910588F421E056
:1003700030E0A90102C0440F551F8A95E2F7CA0177
:10038000FB0120813181822B932B918380830895FF
:100390000A9721E030E0B90102C0660F771F8A9505
:1003A000E2F7CB01FA0120813181822B932B9183DB
:1003B00080830895CF93DF93CDB7DEB7AA970FB6AA
:1003C000F894DEBF0FBECDBF8FEF87BB18BA8CE0AD
:1003D0000E942A010E9441001CA21BA21EA21DA273
:1003E00018A61FA21AA619A6C12CF12CE12CE11007
:1003F00022C01EA21DA21CA21BA21AA619A618A6E4
:100400001FA218BA0E94660160E080E00E94F80016
:1004100086E890E00E941B01C3940E9481000E9424
:100420008C000F2EF0EDFF2EF02DF80E29E02F1589
:1004300098F3E394DCCF81E0E81284C08C2D90E047
:100440000E946E051F92FF9287E990E09F938F9321
:10045000CE0101965C019F938F930E9479058E01D6
:100460000E5E1F4F8AE0E4EAF0E0D80101900D92A1
:100470008A95E1F7B801C5010E9477019FEB27E259
:1004800089E0915020408040E1F700C0000080E109
:10049000EEEAF0E0D50101900D928A95E1F71F9206
:1004A000FF928EEB90E09F938F931F930F930E9488
:1004B0007905B801C5010E9477019FEB27E289E029
:1004C000915020408040E1F700C000008FE0ECEC4C
:1004D000F0E0D50101900D928A95E1F78EE0EBED09
:1004E000F0E0D80101900D928A95E1F7B801C501BD
:1004F0000E9477019FEB27E289E0915020408040E5
:10050000E1F700C000008BE0E9EEF0E0D5010190DA
:100510000D928A95E1F782E1E4EFF0E0D8010190D5
:100520000D928A95E1F7B801C5010E9477010FB6D7
:10053000F894DEBF0FBECDBF0E9481008031E1F78D
:10054000E39455CF92E0E912CAC089E0E6E0F1E019
:100550008E010F5F1F4FD80101900D928A95E1F730
:100560008DE0EFE0F1E0DE01529601900D928A9568
:10057000E1F7BE016E5E7F4FC8010E9477012FEB4D
:1005800087E299E0215080409040E1F700C00000F0
:100590008F2D90E0880F991F9F938F938CE191E0AE
:1005A0009F938F931F930F930E94790589E0E8E250
:1005B000F1E0DE01529601900D928A95E1F7BE01BD
:1005C0006E5E7F4FC8010E9477012FEB87E299E0B2
:1005D000215080409040E1F700C000000F900F9044
:1005E0000F900F900F900F90D12C10E073C00E94CD
:1005F000690564E170E00E94F5048F5F1BC091E023
:10060000910F1DEC919F112D112412951F70110F48
:10061000110F812F880F880F180F911B192F4BA1D5
:100620005CA16DA17EA1892F90E00E9492018111B1
:10063000E6CF802F0FEF080F8111E1CFAE014D5DA6
:100640005F4FBE016B5D7F4F812F90E00E94B40130
:100650008D2D90E001969F938F9381E391E09F937E
:100660008F93CE0101965C019F938F930E94790531
:100670008DEC189F812D1124869586958695282FBF
:10068000220F922F990F990F920F212F291B1F9242
:100690002F931F928F938DE391E09F938F934E0141
:1006A00082E1880E911C9F928F920E947905B4017D
:1006B000C5010E9477019FEE29E482E0915020401D
:1006C0008040E1F700C00000D3940FB6F894DEBF7D
:1006D0000FBECDBFDF1408F48ACFE39488CE93E039
:1006E000E91285CEE4C0E8BA01969F938F9384E423
:1006F00091E09F938F93CE0101965C019F938F931E
:100700000E9479050E94660160E080E00E94F80086
:10071000C5010E941B010F900F900F900F900F903A
:100720000F90112399F01F921F9382E591E09F9300
:100730008F93BF92AF920E947905C5010E941B0161
:100740000F900F900F900F900F900F90002309F4CF
:100750009EC01F920F9387E591E09F938F93CE01E8
:1007600001965C019F938F930E947905C5010E94B9
:100770001B0110530F900F900F900F900F900F9040
:10078000123020F4003310F00A33A8F061E080E06A
:100790000E94F8008BE591E00E941B01D3949FEB2F
:1007A00027E289E0915020408040E1F700C000003E
:1007B00000E010E080C020ED200F812F90E08C0140
:1007C000000F111F880F991F880F991F880F991FFD
:1007D000800F911F8C01020F111D4FA158A569A513
:1007E0007AA5C8010E9492018823A1F061E080E00F
:1007F0000E94F8008BE691E00E941B019FEB27E22C
:1008000089E0915020408040E1F700C0000000E006
:1008100010E051C0AE01495D5F4FBE01675D7F4F83
:10082000C8010E94B4014BA15CA16DA17EA1C801C9
:100830000E9492018823B1F061E080E00E94F800FC
:1008400086E791E00E941B01D394E3949FEB27E29B
:1008500089E0915020408040E1F700C0000000E0B6
:1008600010E029C061E080E00E94F8008EE791E08E
:100870000E941B01D3949FEB27E289E09150204016
:100880008040E1F700C0000000E010E014C011114A
:1008900006C00E9481000E948C00182F0CC001111C
:1008A0000AC00E9481000E948C00082F04C000E052
:1008B00010E0E12CD12C8D2D90E02F2D30E0220F77
:1008C000331F821793071CF4EF1408F40CCFE8BA17
:1008D000FE1045C081E1E1ECF1E0DE0111960190EE
:1008E0000D928A95E1F78CE0E4E8F1E0DE015296A2
:1008F00001900D928A95E1F7BE016E5E7F4FCE01A9
:1009000001960E9477019FEB27E289E091502040F9
:100910008040E1F700C000008BE0E0E9F1E0DE019B
:10092000119601900D928A95E1F78DE0EBE9F1E0E7
:10093000DE01529601900D928A95E1F7BE016E5E3E
:100940007F4FCE0101960E9477019FEB27E289E05D
:10095000915020408040E1F700C0000044C081E198
:10096000E2EDF1E0DE01119601900D928A95E1F73A
:100970008DE0E8EAF1E0DE01529601900D928A9551
:10098000E1F7BE016E5E7F4FCE0101960E947701B6
:100990009FEB27E289E0915020408040E1F700C0C2
:1009A00000008CE0E5EBF1E0DE01119601900D9284
:1009B0008A95E1F781E1E3EEF1E0DE0152960190E4
:1009C0000D928A95E1F7BE016E5E7F4FCE010196D2
:1009D0000E9477019FEB27E289E091502040804000
:1009E000E1F700C00000E12C02CD97FB072E16F4C2
:1009F000009407D077FD09D00E94090507FC05D0B7
:100A00003EF4909581959F4F0895709561957F4F25
:100A10000895AA1BBB1B51E107C0AA1FBB1FA61745
:100A2000B70710F0A61BB70B881F991F5A95A9F797
:100A300080959095BC01CD0108958F929F92AF92C1
:100A4000BF92CF92DF92EF92FF92CF93DF93EC01B0
:100A5000688179818A819B81611571058105910584
:100A600021F464E279ED8BE597E02DE133EF41E08D
:100A700050E00E942C0849015A019B01AC01A7EAF1
:100A8000B1E40E944B086B017C01ACEEB4EFA50110
:100A900094010E945908DC01CB018C0D9D1DAE1DF7
:100AA000BF1DB7FF03C00197A109B0488883998390
:100AB000AA83BB839F77DF91CF91FF90EF90DF9068
:100AC000CF90BF90AF909F908F9008950E941D058A
:100AD000089580E690E00E941D050895A0E0B0E032
:100AE0008093600090936100A0936200B0936300D4
:100AF0000895AEE0B0E0EFE7F5E00C946C080D89E6
:100B00001E8986E08C831A8309838FEF9FE79E837B
:100B10008D83AE01475E5F4F6F89788DCE01019660
:100B20000E949B05EF81F885E00FF11F10822E9641
:100B3000E4E00C948808ABE0B0E0E1EAF5E00C9466
:100B40005E086C017B018A01FC0117821682838199
:100B500081FFCCC1CE0101963C01F6019381F701E2
:100B600093FD859193FF81917F01882309F4BAC198
:100B7000853239F493FD859193FF81917F01853210
:100B800029F4B60190E00E949207E7CF912C212C26
:100B9000312CFFE1F315D8F08B3279F038F4803244
:100BA00079F08332A1F4232D20611DC08D3261F0D4
:100BB000803369F4232D216016C0832D8260382E86
:100BC000E32DE4603E2E2AC0F32DF8601DC037FCF3
:100BD0002DC020ED280F2A3040F08E32B9F436FCBB
:100BE00081C1232D2064322E19C036FE06C08AE052
:100BF000989E200D1124922E11C0EAE02E9E200D09
:100C00001124222EF32DF0623F2E08C08C3621F4E1
:100C1000832D8068382E02C0883641F4F70193FD99
:100C2000859193FF81917F018111B3CF982F9F7D93
:100C30009554933028F40C5F1F4F9FE399830DC0A8
:100C4000833631F0833771F0833509F059C021C004
:100C5000F801808189830E5F1F4F88248394912C33
:100C6000530113C02801F2E04F0E511CF801A0807F
:100C7000B18036FE03C0692D70E002C06FEF7FEFD8
:100C8000C5010E9487074C018201F32DFF773F2E9B
:100C900016C0280122E0420E511CF801A080B1804C
:100CA00036FE03C0692D70E002C06FEF7FEFC50113
:100CB0000E947C074C01F32DF0683F2E820133FC2B
:100CC0001BC0822D90E088169906B0F4B60180E230
:100CD00090E00E9492072A94F4CFF50137FC8591A9
:100CE00037FE81915F01B60190E00E9492072110CA
:100CF0002A9421E0821A91088114910471F7E8C0C6
:100D0000843611F0893641F5F80137FE07C060815D
:100D10007181828193810C5F1F4F08C06081718156
:100D2000072E000C880B990B0E5F1F4FF32DFF76DB
:100D30003F2E97FF09C090958095709561957F4FE4
:100D40008F4F9F4FF0683F2E2AE030E0A3010E94B2
:100D5000CE07882E861845C0853731F4232D2F7E87
:100D6000B22E2AE030E025C0932D997FB92E8F3620
:100D7000C1F018F4883579F0B5C0803719F088379C
:100D800021F0B0C0E92FE061BE2EB4FE0DC0FB2DF6
:100D9000F460BF2E09C034FE0AC0292F2660B22E8F
:100DA00006C028E030E005C020E130E002C020E1CC
:100DB00032E0F801B7FE07C06081718182819381C2
:100DC0000C5F1F4F06C06081718180E090E00E5F74
:100DD0001F4FA3010E94CE07882E8618FB2DFF7798
:100DE0003F2E36FE0DC0232D2E7FA22E891458F4DF
:100DF00034FE0BC032FC09C0832D8E7EA82E05C0A8
:100E0000B82CA32C03C0B82C01C0B92CA4FE0FC071
:100E1000FE01E80DF11D8081803321F49A2D997E29
:100E2000A92E09C0A2FE06C0B394B39404C08A2DB3
:100E3000867809F0B394A3FC11C0A0FE06C0B214DA
:100E400088F4280C922C9B180EC0B21460F4B601E2
:100E500080E290E00E949207B394F7CFB21418F4A6
:100E60002B1802C0982C212CA4FE10C0B60180E3E0
:100E700090E00E949207A2FE17C0A1FC03C088E781
:100E800090E002C088E590E0B6010CC08A2D86781B
:100E900059F0A1FE02C08BE201C080E2A7FC8DE206
:100EA000B60190E00E949207891438F4B60180E3FD
:100EB00090E00E9492079A94F7CF8A94F301E80D8C
:100EC000F11D8081B60190E00E9492078110F5CF5C
:100ED000222009F442CEB60180E290E00E949207FF
:100EE0002A94F6CFF6018681978102C08FEF9FEF9B
:100EF0002B96E2E10C947A08FC0105906150704059
:100F00000110D8F7809590958E0F9F1F0895FC01D2
:100F10006150704001900110D8F7809590958E0F28
:100F20009F1F08950F931F93CF93DF93FB0123819E
:100F300021FD03C08FEF9FEF2CC022FF16C046811A
:100F40005781248135814217530744F4A081B18130
:100F50009D012F5F3F4F318320838C932681378102
:100F60002F5F3F4F3783268314C08B01EC01FB01B9
:100F70000084F185E02D0995892BE1F6D8011696BC
:100F80008D919C911797019617969C938E93169727
:100F9000CE01DF91CF911F910F910895FA01AA27F9
:100FA000283051F1203181F1E8946F936E7F6E5FAC
:100FB0007F4F8F4F9F4FAF4FB1E03ED0B4E03CD05A
:100FC000670F781F891F9A1FA11D680F791F8A1F3D
:100FD000911DA11D6A0F711D811D911DA11D20D0A4
:100FE00009F468943F912AE0269F11243019305D5E
:100FF0003193DEF6CF010895462F4770405D41934F
:10100000B3E00FD0C9F7F6CF462F4F70405D4A339B
:1010100018F0495D31FD4052419302D0A9F7EACF63
:10102000B4E0A6959795879577956795BA95C9F792
:1010300000976105710508959B01AC010A2E069485
:101040005795479537952795BA95C9F7620F731F3E
:10105000841F951FA01D0895052E97FB1EF4009474
:101060000E94430857FD07D00E94950807FC03D053
:101070004EF40C94430850954095309521953F4F80
:101080004F4F5F4F089590958095709561957F4F74
:101090008F4F9F4F08950E94B708A59F900DB49F52
:1010A000900DA49F800D911D11240895B7FF0C94FD
:1010B0004B080E944B08821B930B08952F923F927E
:1010C0004F925F926F927F928F929F92AF92BF9258
:1010D000CF92DF92EF92FF920F931F93CF93DF9304
:1010E000CDB7DEB7CA1BDB0B0FB6F894DEBF0FBE61
:1010F000CDBF09942A88398848885F846E847D84AE
:101100008C849B84AA84B984C884DF80EE80FD80AF
:101110000C811B81AA81B981CE0FD11D0FB6F89425
:10112000DEBF0FBECDBFED010895A1E21A2EAA1BAE
:10113000BB1BFD010DC0AA1FBB1FEE1FFF1FA21787
:10114000B307E407F50720F0A21BB30BE40BF50B84
:10115000661F771F881F991F1A9469F7609570950D
:10116000809590959B01AC01BD01CF010895A29F90
:10117000B001B39FC001A39F700D811D1124911D6B
:10118000B29F700D811D1124911D0895F894FFCF19
:1011900001000000313233413435364237383943AB
:1011A0002A3023440020202020202020202020201E
:1011B0002020202020004375616E746F73206375BA
:1011C0006164726F733F004573636F6E646572652F
:1011D00020256400637561647269746F73005475CF
:1011E00020646562657320627573636172002564B3
:1011F00020637561647269746F732E0032206669B2
:101200006C61732028312C20322900313020636F2B
:101210006C732028302D39290050726573696F6E08
:1012200061202B007061726120636F6E74696E754E
:1012300061722E2E2E005472617461206465006DFF
:10124000656D6F72697A61722E2E2E005469656E1B
:101250006573202530326400496E74656E746F7357
:1012600000437561647269746F2025640025642CE5
:1012700020256400496E74656E746F2025303264D9
:1012800020002825632C00256329004E6F206578F7
:1012900069737465206C75676172005961206573AC
:1012A0007461626121004163696572746F00457207
:1012B000726F72006D656D6F72696120212121006E
:1012C00047616E617374652121210046656C696315
:1012D000696461646573210074616E206275656E76
:1012E00061203D2800506572646973746521212175
:1012F000005469656E657320657863656C656E740E
:1013000065005475206D656D6F726961206E6F2088
:10131000657300496E74656E7461206465206E7536
:0413200065766F007F
:00000001FF
