S0110000536F756E64546573742E737265636A
S11300000C942A000C9447000C9447000C9447006D
S11300100C9447000C9447000C9447000C94470040
S11300200C9447000C9447000C9447000C94470030
S11300300C9447000C9447000C9447000C94470020
S11300400C9447000C9447000C9447000C94470010
S11300500C94470011241FBECFE5D4E0DEBFCDBF12
S113006010E0A0E6B0E0EEE4F1E002C005900D92ED
S1130070A03EB107D9F720E0A0EEB0E001C01D9288
S1130080A13EB207E1F70E9449000C94A5000C942C
S113009000001092E0008DE88CBF8AE183BF789461
S11300A087B3886087BB81B3816081BB82B3816081
S11300B082BB90E0E92F092E000CFF0BE05AFF4FA2
S11300C0808181110FC081E0890F6EE40E948B0052
S11300D083B78F7E83BFEFE4F3EC3197F1F700C071
S11300E0000015C08CBF81E0890F6EE40E948B0074
S11300F0EBE7F2E93197F1F700C0000083B78F7E98
S113010083BFE3EDF0E33197F1F700C0000083B75C
S1130110806183BFCFCF87FB082E062687FD81959C
S113012067FD61950E9499000EF4919507FC8195F5
S11301300895991B79E004C0991F961708F0961B3F
S1110140881F7A95C9F780950895F894FFCF2B
S113014E17170017001D17001300000027000000EA
S113015E1D00002700002E000023001F0021230095
S113016E271713110015130017001D1A1F00001D69
S113017E00002700002E000023001F00212300276B
S113018E1713110015130017001D1A1F000000008D
S113019E000000000000000000000000000000004D
S11301AE000000000000000000000000000000003D
S11301BE000000000000000000000000000000002D
S9030000FC
