:100000000C942A000C9434000C9434000C943400AA
:100010000C9434000C9434000C9434000C94340090
:100020000C9434000C9434000C9434000C94340080
:100030000C9434000C9434000C9434000C94340070
:100040000C9434000C9434000C9434000C94340060
:100050000C94340011241FBECFE5D4E0DEBFCDBF29
:100060000E9457000C947E000C940000806687B9B3
:1000700086B1806486B93699FECF87E592E0019714
:10008000F1F700C0000085B10895833340F0863653
:1000900040F0893940F08B3C40F487E0089580E0DF
:1000A000089581E0089583E008958FE0089580E643
:1000B00087B910BE85E886B91ABA8FEF87BB84BBB3
:1000C00080E00E943600D82F81E00E943600182F71
:1000D00082E00E943600C82F8D2F0E944500D82F45
:1000E000812F0E94450020E1829FC00111248D2BA9
:1000F00088BB8C2F0E94450085BBE2CFF894FFCFD0
:00000001FF
