:100000000C942A000C9447000C9447000C94470071
:100010000C9447000C9447000C9447000C94470044
:100020000C9447000C9447000C9447000C94470034
:100030000C9447000C9447000C9447000C94470024
:100040000C9447000C9447000C9447000C948703D1
:100050000C94470011241FBECFE5D4E0DEBFCDBF16
:1000600010E0A0E6B0E0E2E2F8E002C005900D92F8
:10007000A83EB107D9F720E0A8EEB0E001C01D927C
:10008000A03FB207E1F70E94F3020C940F040C9416
:1000900000008FE084BB8FEF85BB089590E081E086
:1000A00029C021E030E0092E02C0220F331F0A943C
:1000B000E2F7209525BB000023B3322F307F303F7D
:1000C000B9F04FE758E361E0415050406040E1F73C
:1000D00000C0000024FF11C025FD02C08F5F0895FD
:1000E00026FD02C08E5F0895332314F08D5F0895BE
:1000F0008C5F9F5F9430A8F280E008950E944E00CC
:100100008111FCCF2FE788E391E02150804090409F
:10011000E1F700C000000895CF930E944E00C82F61
:100120008823D9F30E947E008C2FCF910895E82F69
:10013000F0E0E15AFF4F808108958BB380648BBB60
:1001400000C08BB38F7B8BBB0895CF93DF93D82FE9
:10015000662321F08BB380618BBB03C08BB38F7E92
:100160008BBB8BB38F7D8BBB8AB38F608ABBCBB3CA
:10017000C07F8D2F82958F708C2B8BBB0E949D0032
:10018000DF70DC2BDBBB0E949D00CF60CBBBDF911F
:10019000CF910895882321F08BB380618BBB03C07E
:1001A0008BB38F7E8BBB8BB380628BBB8AB3807F1C
:1001B0008ABB8BB380648BBB00C099B39295907F50
:1001C0008BB38F7B8BBB00C08BB380648BBB00C0B9
:1001D00089B38F702BB32F7B2BBB892B089580E0C5
:1001E0000E94CA008823DCF384E090E00197F1F7D5
:1001F00080E00E94CA000895CF93C82F0E94EF00AC
:1002000060E08C2F0E94A500CF910895611104C079
:1002100080580E94FC00089580540E94FC000895BC
:1002200081E00E94FC000895CF93C82F0E94EF0048
:10023000CA3049F4803410F480E401C080E0805872
:100240000E94FC0004C061E08C2F0E94A500CF91A9
:100250000895CF93DF93FC0103C00E941401FE01B7
:10026000EF01219680818111F8CFDF91CF91089520
:100270001F93CF93DF93182F8AB38F678ABB80E0D9
:100280009DE70197F1F78BB382608BBB8BB38160E5
:100290008BBB0E949D0080E097E20197F1F70E94DE
:1002A0009D00C0E8D0E0CE010197F1F70E949D00CB
:1002B000CE010197F1F78BB38E7F8BBB0E949D001F
:1002C0002197F1F788E20E94FC0088E00E94FC0080
:1002D0000E94100186E00E94FC00812F0E94FC0019
:1002E000DF91CF911F910895F8946091ED0086E021
:1002F00090E00E9402046091EB0085E090E00E9493
:1003000002046091EE0084E090E00E940204789480
:100310000895F89486E090E00E94FA038093ED003F
:1003200085E090E00E94FA038093EB0084E090E087
:100330000E94FA038093EE00789408951F93CF9360
:10034000DF93EC0180E091E0980FFE01E80FF11DD2
:100350002081892F2111F7CF969588E0891B04C051
:1003600080E20E941401812F1FEF180F8111F8CF36
:10037000CE010E942901DF91CF911F91089560E085
:1003800080E00E94060181E790E00E94290161E07F
:1003900080E00E94060181E790E00E94290160E070
:1003A00080E00E9406010895FF920F931F93CF9360
:1003B000DF938C0182E0D0E013C00E948C0080317A
:1003C00041F10E949700C0EDC80FCA30B0F70E94FB
:1003D0001401DD0F8D2F880F880FD80FDC0F8F2DA4
:1003E000FF24FA94F80E8111E8CF0E948C0080312E
:1003F00091F08D30D1F7DD2381F0F8012081D08399
:100400009091EB008091EE00891748F4208382E000
:1004100007C081E005C081E003C082E001C080E048
:10042000DF91CF911F910F91FF900895CF92DF92AE
:10043000EF92FF920F931F93CF93DF936C017B0199
:100440008A01E9010E94BF01C6010E949E0161E08C
:1004500083E00E940601C7010E94290161E087E054
:100460000E940601C8010E94290161E085E00E9406
:100470000601CE010E94D401C82F0E94BF01C11104
:1004800007C00E94740182E890E00E9429010BC01D
:10049000C13029F48FE890E00E94290104C08DE961
:1004A00090E00E9429012FEF89E698E121508040D9
:1004B0009040E1F700C00000DF91CF911F910F91B4
:1004C000FF90EF90DF90CF900895CF9361E087E0A9
:1004D0000E9406018091EC00CDEC8C9F812D1124AF
:1004E000869586958695805D0E9414018091EC002A
:1004F0008C9FC12D1124C695C695C695CC0F9C2FF7
:10050000990F990FC90F8C1B805D0E941401CF9128
:1005100008951092EC000E94BF0186EA90E00E94CC
:100520009E0161E080E00E94060181EB90E00E9464
:1005300029010E9465020895833340F0863640F019
:10054000893940F08B3C40F48AE0089582E00895B8
:1005500080E0089585E0089581E0089586B1806483
:1005600086B93699FECF2FE788E391E0215080408D
:100570009040E1F700C0000085B108950E94BF01DE
:1005800089EB90E00E94290181E090E09093E900DE
:100590008093E8008091EB008093EF008091EE0063
:1005A0008093EA0016C08091EA00882321F082B38C
:1005B000806882BB03C082B38F7782BB8091EF00DB
:1005C000882321F082B3806482BB03C082B38F7B17
:1005D00082BB8091EF008111E6CF8091EA0081110A
:1005E000E2CF12BA089580E888BB8FEF81BB12BAC0
:1005F0008BE083BF8CE78CBF82E089BF0E948901BA
:100600001092E9001092E80078948091ED008150FA
:10061000833618F08AE08093ED008091EE008150DF
:10062000833618F08AE08093EE008091EB008823F7
:1006300021F09091EE00981720F48091EE008093C5
:10064000EB000E9474010E9449008CE00E94380176
:100650000E94890287E687B910BE86E886B9D0E88D
:1006600001C0DC2F0E944E00882361F1843069F4C0
:100670002DEE30E041E850E064EC70E086EC90E074
:100680000E9416020E9489021DC0883069F42BEE78
:1006900030E04CEC50E060E870E081ED90E00E94CA
:1006A00016020E9489020EC08C3061F42EEE30E0FA
:1006B0004CEC50E060E870E08AED90E00E94160299
:1006C0000E948902C6B3C078DC1761F22FEF80E781
:1006D00092E0215080409040E1F700C00000C03817
:1006E00009F0BFCF0E94AE020E949C029091EC00E4
:1006F000890F8093EC009091ED00891728F00E94FB
:10070000BE020E948902ADCF0E946502AACF1F924D
:100710000F920FB60F9211242F933F934F935F9335
:100720006F937F938F939F93AF93BF938091E800D4
:100730009091E90001969093E9008093E800409140
:10074000E8005091E9009A0136952795369527954E
:1007500036952795A5ECB0E20E94EB039295829521
:100760008F7089279F70892768EE73E0869F9001BC
:10077000879F300D969F300D1124CA01821B930B69
:100780009093E9008093E8008091E8009091E9005F
:10079000892B91F48091EF00882329F08091EF005C
:1007A00081508093EF008091EA00882329F08091A6
:1007B000EA0081508093EA00BF91AF919F918F91A1
:1007C0007F916F915F914F913F912F910F900FBE4D
:1007D0000F901F901895A29FB001B39FC001A39FD7
:1007E000700D811D1124911DB29F700D811D11246A
:1007F000911D0895E199FECF9FBB8EBBE09A99278A
:100800008DB30895262FE199FECF9FBB8EBB2DBBE4
:100810000FB6F894E29AE19A0FBE01960895F89403
:02082000FFCF08
:100822003738392F3435362A3132332D43303D2B88
:1008320000202020202020202020202020202020D6
:1008420020004755415244414E444F2E2E2E004324
:10085200414E43454C414E444F2E2E2E004552529E
:100862004F522E2E2E004269656E76656E69646F58
:10087200004C6C6576613A20004F43555041444F1D
:100882002E2E2E002400434F53544F0020736567D1
:1008920000415045525455524100494C554D4E4924
:0808A200434143494F4E0000A1
:00000001FF
