S00E00004578616D656E2E73726563B8
S11300000C942A000C9447000C9447000C9447006D
S11300100C9447000C9447000C9447000C94470040
S11300200C9447000C9447000C9447000C94470030
S11300300C9447000C9447000C9447000C94470020
S11300400C9447000C9447000C9447000C94FF0256
S11300500C94470011241FBECFE5D4E0DEBFCDBF12
S113006011E0A0E6B0E0E4E2F8E002C005900D92F1
S1130070AC33B107D9F721E0ACE3B1E001C01D9284
S1130080AA34B207E1F70E94BF020C9410040C9446
S113009000008FE187BB8FEF88BB089590E080E07C
S11300A02AC043E050E0491B510922E030E002C07D
S11300B0220F331F4A95E2F7209528BB000026B390
S11300C0322F307F303FA9F04FE758E361E04150D1
S11300D050406040E1F700C0000025FD02C08F5F82
S11300E0089526FD02C08E5F0895332314F08D5FBA
S11300F008958D5F9F5F9430A0F280E008950E9480
S11301004E008111FCCF2FE788E391E0215080401D
S11301109040E1F700C000000895CF930E944E0084
S1130120C82F8823D9F30E947F008C2FCF91089584
S1130130E82FF0E0ED59FF4F8081089585B3806486
S113014085BB00C085B38F7B85BB0895CF93DF93B8
S1130150D82F662321F085B3806885BB03C085B39F
S11301608F7785BB85B38F7E85BB84B38F6084BB5B
S1130170C5B3C07F8D2F82958F708C2B85BB0E9459
S11301809E00DF70DC2BD5BB0E949E00CF60C5BBF8
S1130190DF91CF910895882321F085B3806885BBD2
S11301A003C085B38F7785BB85B3806185BB84B37A
S11301B0807F84BB85B3806485BB00C093B3929574
S11301C0907F85B38F7B85BB00C085B3806485BB7E
S11301D000C083B38F7025B32F7B25BB892B089573
S11301E080E00E94CB008823DCF384E090E0019758
S11301F0F1F780E00E94CB000895CF93C82F0E94AE
S1130200F00060E08C2F0E94A600CF910895611148
S113021004C080580E94FD00089580540E94FD008F
S1130220089581E00E94FD000895CF93C82F0E9495
S1130230F000CA3049F4803410F480E401C080E056
S113024080580E94FD0004C061E08C2F0E94A6002B
S1130250CF910895CF93DF93FC0103C00E94150151
S1130260FE01EF01219680818111F8CFDF91CF91BA
S113027008951F93CF93DF93182F84B38F6084BBAB
S113028084B3806884BB84B3806184BB84B380649A
S113029084BB80E09DE70197F1F785B3826085BB5D
S11302A085B3816085BB0E949E0080E097E2019740
S11302B0F1F70E949E00C0E8D0E0CE010197F1F76B
S11302C00E949E00CE010197F1F785B38E7F85BB16
S11302D00E949E002197F1F788E20E94FD0088E0C9
S11302E00E94FD000E94110186E00E94FD00812F02
S11302F00E94FD00DF91CF911F910895CF938CE070
S11303000E943901CFEFCABB1BBA0E94490011BA3F
S1130310C2BB8AE083BF87EC8CBF82E089BFF894BC
S1130320CF91089560E080E00E94070181E790E0AA
S11303300E942A0161E080E00E94070181E790E0C9
S11303400E942A0160E080E00E94070108950F9353
S11303501F93CF93DF938C01EB010E949201C8019C
S11303600E942A0161E080E00E940701CE010E9400
S11303702A012FEF89E698E1215080409040E1F76F
S113038000C00000DF91CF911F910F9108958FE07D
S11303908BBB62E870E08CE890E00E94A70169E9F9
S11303A070E080EA90E00E94A70160EB70E081ECCD
S11303B090E00E94A7016EEC70E086ED90E00E9450
S11303C0A70165EE70E082EF90E00E94A701089516
S11303D00F931F93CF930E949201809146019091B5
S11303E047010E94A20360E080E00E94070189EFB8
S11303F090E00E942A0161E080E00E940701C0E0D1
S11304001CC00C2F0C2E000C110B0E949D036AE0E3
S113041070E00E942903F801E45CFE4F8083CC2342
S113042021F08AE091E00E942A01F801E45CFE4F89
S11304308081805D0E941501CF5FC53014F3CF9198
S11304401F910F9108950F931F93CF931092490119
S11304501092480110924701109246017894C0E02E
S11304600FC00C2F0C2E000C110B0E948D000E944B
S113047098008053F801EF5BFE4F80838BBBCF5F06
S1130480C5307CF3CF911F910F910895CF93DF93E3
S113049020E019C0822F90E0FC01EF5BFE4F408109
S11304A050E0FC01E45CFE4F8081082E000C990BA7
S11304B04817590739F06DE071E08AE191E00E9434
S11304C0A7015AC02F5F253028F30E94920160E0F3
S11304D080E00E94070186E291E00E942A0161E027
S11304E080E00E94070180E391E00E942A0180914C
S11304F048019091490168EE73E00E94290380E36A
S1130500860F0E941501809148019091490164E68B
S113051070E00E942903CB01CAE0D0E0BE010E9432
S11305202903805D0E9415018AE30E9415018091D0
S1130530480190914901BE010E942903CB01BE01EB
S11305400E942903805D0E941501809148019091C9
S11305504901BE010E942903805D0E9415018CECB3
S113056090E00E942A012FEF89E698E12150804013
S11305709040E1F700C00000DF91CF9108950E9400
S11305807E010E94C70109C08091460190914701F4
S1130590019690934701809346018299F5CF2FE706
S11305A088E391E0215080409040E1F700C00000D2
S11305B00E94E8010E9423028699FECF2FE788E378
S11305C091E0215080409040E1F700C00000869BFC
S11305D0FECFF8942FE788E391E0215080409040CB
S11305E0E1F700C000000E9446022FEF89E698E17F
S11305F0215080409040E1F700C00000C2CF1F921C
S11306000F920FB60F9211248F939F9380914601FE
S11306109091470101969093470180934601809100
S1130620460190914701C29769F4109247011092D4
S113063046018091480190914901019690934901A6
S1130640809348019F918F910F900FBE0F901F9040
S1130650189597FB072E16F4009407D077FD09D060
S11306600E943D0307FC05D03EF4909581959F4F71
S11306700895709561957F4F0895AA1BBB1B51E1A6
S113068007C0AA1FBB1FA617B70710F0A61BB70BFE
S1130690881F991F5A95A9F780959095BC01CD01A3
S11306A008958F929F92AF92BF92CF92DF92EF9272
S11306B0FF92CF93DF93EC01688179818A819B81DA
S11306C0611571058105910521F464E279ED8BE5ED
S11306D097E02DE133EF41E050E00E94AD03490182
S11306E05A019B01AC01A7EAB1E40E94CC036B015F
S11306F07C01ACEEB4EFA50194010E94DA03DC01A5
S1130700CB018C0D9D1DAE1DBF1DB7FF03C001970E
S1130710A109B04888839983AA83BB839F77DF911B
S1130720CF91FF90EF90DF90CF90BF90AF909F90CC
S11307308F9008950E945103089580E690E00E94EE
S113074051030895A0E0B0E08093600090936100AD
S1130750A0936200B09363000895052E97FB1EF4E6
S113076000940E94C40357FD07D00E94DF0307FCD6
S113077003D04EF40C94C4035095409530952195C4
S11307803F4F4F4F5F4F08959095809570956195B9
S11307907F4F8F4F9F4F08950E940104A59F900D96
S11307A0B49F900DA49F800D911D11240895B7FF4F
S11307B00C94CC030E94CC03821B930B0895A1E2FA
S11307C01A2EAA1BBB1BFD010DC0AA1FBB1FEE1FC7
S11307D0FF1FA217B307E407F50720F0A21BB30B12
S11307E0E40BF50B661F771F881F991F1A9469F78E
S11307F060957095809590959B01AC01BD01CF01EA
S11308000895A29FB001B39FC001A39F700D811DE5
S11308101124911DB29F700D811D1124911D089505
S1070820F894FFCF76
S1130824010000003132333435363738393A303A3E
S113083400202020202020202020202020202020D0
S113084420007265616363696F6E2E004D6564698F
S113085472656D6F7320747500494E4943494F00A6
S113086444656265732070726573696F6E617200AA
S11308746E756D65726F7320656E206F7264656E3C
S11308840050726573696F6E61206C6F7300444528
S113089454454E4552004C7565676F2070726573FC
S11308A4696F6E610054652065737065726F2E2ED6
S11308B42E004C6973746F3F004C6F73206E756D1A
S11308C465726F7320736F6E3A002C200065737425
S11308D4616E206D616C203A43004C6F73206E7519
S11308E46D65726F73004D7579206269656E2100C0
S10F08F454617264617374653A20000062
S9030000FC
