:100000000C942A000C9447000C9447000C94470071
:100010000C9447000C9447000C9447000C94470044
:100020000C9447000C9447000C9447000C94470034
:100030000C9447000C9447000C9447000C94470024
:100040000C9447000C9447000C9447000C94470014
:100050000C94470011241FBECFE5D4E0DEBFCDBF16
:1000600011E0A0E6B0E0EAE5FAE002C005900D92EA
:10007000AC3CB107D9F721E0ACECB1E001C01D9276
:10008000A53FB207E1F70E94D0010C942B050C9418
:100090000000AE9A00C0AE980895CF93DF93D82F9A
:1000A000662311F0AC9A01C0AC98AD9884B38F6010
:1000B00084BBC5B3C07F8D2F82958F708C2B85BB81
:1000C0000E944900DF70DC2BD5BB0E944900CF6045
:1000D000C5BBDF91CF910895882311F0AC9A01C080
:1000E000AC98AD9A84B3807F84BBAE9A00C093B3C2
:1000F000AE9800C0AE9A00C023B32F70892F8295AE
:10010000807FAE98822B089580E00E946C00882347
:10011000DCF382E090E00197F1F780E00E946C0050
:100120000895CF93C82F0E94840060E08C2F0E9416
:100130004D00CF910895611104C080580E94910034
:10014000089580540E949100089581E00E949100DA
:100150000895CF93C82F0E948400CA3049F4803498
:1001600010F080E001C080E480580E94910004C03B
:1001700061E08C2F0E944D00CF910895CF93DF93C3
:10018000EC012196FC018081882329F00E94A900BE
:1001900089918111FBCFDF91CF9108951F93CF9368
:1001A000DF93182F84B38F6784BB80E89EE30197A9
:1001B000F1F7A99AA89A0E94490080E893E1019773
:1001C000F1F70E944900C0E4D0E0CE010197F1F7B9
:1001D0000E944900CE010197F1F7A8980E944900BA
:1001E0002197F1F788E20E94910088E00E94910037
:1001F0000E94A50086E00E949100812F0E9491003C
:10020000DF91CF911F9108958FE08ABB8FEF8BBB59
:100210000895FC018FE19EE40197F1F700C0000012
:1002200041E050E002C0440F551F6A95E2F720817B
:1002300030E024233523232BD1F38FE19EE4019773
:10024000F1F700C0000008958EEF9DEF2BEF37EF20
:100250008BBB0000CC9908C064E089E390E00E9469
:100260000901809164000895CD9908C065E089E393
:1002700090E00E940901809165000895CE9908C020
:1002800066E089E390E00E9409018091660008958C
:10029000CF9908C067E089E390E00E94090180914E
:1002A000670008959BBB0000CC9908C064E089E317
:1002B00090E00E940901809168000895CD9908C0DE
:1002C00065E089E390E00E9409018091690008954A
:1002D000CE9908C066E089E390E00E940901809110
:1002E0006A000895CF9908C067E089E390E00E9412
:1002F000090180916B0008952BBB0000CC9908C0C8
:1003000064E089E390E00E94090180916C00089507
:10031000CD9908C065E089E390E00E9409018091D1
:100320006D000895CE9908C066E089E390E00E94D0
:10033000090180916E000895CF9908C067E089E3B4
:1003400090E00E94090180916F0008953BBB00007E
:10035000CC9908C064E089E390E00E940901809193
:1003600070000895CD9908C065E089E390E00E948F
:100370000901809171000895CE9908C066E089E373
:1003800090E00E940901809172000895CF9960CF9A
:1003900067E089E390E00E9409018091730008956D
:1003A0008CE00E94CE000E9404018FEF87BB0F2ECD
:1003B000FAEEEF2EF1E0FF2EF02DAA24A3940F2EDB
:1003C000FAE04F2E512CF02D6A2C0F2EFDEC7F2ED3
:1003D000F02DE0EEF1E0ACECB1E0119211861D924F
:1003E00019961C921997EE16FF06B9F70E94A50000
:1003F00018BA84E790E00E94BE000E942401809316
:10040000F4018091F4018033C0F38091F4018A33C8
:10041000A0F70E94A50085E890E00E94BE008091B0
:10042000F4010E94A9006A2D80E00E949B0081EAED
:1004300090E00E94BE002FEB87E299E021508040BF
:100440009040E1F700C000000E94A50080E990E024
:100450000E94BE006A2D80E00E949B008091F40102
:100460000E94A90080EA90E00E94BE002FEB87E284
:1004700099E0215080409040E1F700C000000E94C8
:10048000A5008CEA90E00E94BE006A2D80E00E94E8
:100490009B008AEB90E00E94BE002FEB87E299E080
:1004A000215080409040E1F700C000000E94A5006C
:1004B00088EC90E00E94BE006A2D80E00E949B00C4
:1004C00083ED90E00E94BE000E9424018B32E1F790
:1004D0000E94A50085EE90E00E94BE006A2D80E09B
:1004E0000E949B008FEE90E00E94BE002FEB87E2FF
:1004F00099E0215080409040E1F700C000008091D9
:10050000F40190E0C097181619060CF070C011E0C5
:100510000E94B804B2010E944404EC010E94B80495
:10052000817090786C01992354F421E0C21AD108AB
:100530008EEFC82ADD24DA949FEFC91AD90AC601C2
:1005400099279E013327FC01EE0FFF1FAC01440FDA
:10055000551F440F551F440F551FE40FF51FE05260
:10056000FE4FE20FF31F40814130A9F1AC01440F6F
:10057000551F880F991F880F991F880F991F840F87
:10058000951F80529E4FFC01E20FF31FA0820E9434
:10059000A5008CEF90E00E94BE0080E3810F0E94D6
:1005A000A900662D80E00E949B0080E38C0D0E94D4
:1005B000A90086E091E00E94BE008C2F805D0E9421
:1005C000A9002FE38DE093E0215080409040E1F7B7
:1005D00000C0000001C011501F5F8091F401212F65
:1005E00030E090E0C097821793070CF091CF0E9403
:1005F000A50088E091E00E94BE008090F401882D63
:10060000880F0F2EF0EA8F2EF02D880E879CC12DBB
:100610001124C695C695C69580E38C0F0E94A9004B
:10062000CC0F8C2F880F880FC80F882D8C1B805DF6
:100630000E94A9006A2D80E00E949B0080E191E069
:100640000E94BE002FEB87E299E02150804090404D
:10065000E1F700C00000882009F4AFC0BB24B394C8
:10066000912C0E94A50089E191E00E94BE00B79CF8
:10067000C12D1124C695C695C69580E38C0F0E94A6
:10068000A900CC0F8C2F880F880FC80F8B2D8C1BC7
:10069000805D0E94A9000E942401C82F82E291E09F
:1006A0000E94BE008C2F0E94A90086E091E00E946B
:1006B000BE000E942401C82E0E94A90088EB90E091
:1006C0000E94BE006A2D80E00E949B00D0E0E0976F
:1006D000D12C20E3C21AD108FE01EE0FFF1FCE017C
:1006E000880F991F880F991F880F991FE80FF91F0E
:1006F000E052FE4FEC0DFD1D8081813079F5CE0179
:10070000880F991F880F991F880F991FFE01EE0F00
:10071000FF1FE80FF91FE453FE4FEC0DFD1D808114
:10072000811116C085E291E00E94BE009394CE0133
:10073000880F991FCC0FDD1FCC0FDD1FCC0FDD1FE5
:10074000C80FD91FC453DE4FCC0DDD1DA8821DC0BC
:100750008DE291E00E94BE00BA9417C0229724F463
:100760008AE0C816D1046CF088E391E00E94BE00D4
:100770006A2D80E00E949B0083E491E00E94BE000D
:1007800004C083E591E00E94BE0098BA9FEB27E287
:1007900089E0915020408040E1F700C00000809146
:1007A000F401292D30E090E0C0972817390731F087
:1007B000B3948B1408F055CF01C0912C0E94A50072
:1007C0002091F401892D90E030E020533109821707
:1007D000930769F589E591E00E94BE006A2D80E0EB
:1007E0000E949B008BE691E00E94BE009FE72AE1F9
:1007F00086E0915020408040E1F700C000000E9458
:10080000A50087E791E00E94BE006A2D80E00E946B
:100810009B0082E891E00E94BE009FE72AE186E00B
:10082000915020408040E1F700C00000D2CD8FE819
:1008300091E00E94BE006A2D80E00E949B0081EA48
:1008400091E00E94BE009FE72AE186E0915020409F
:100850008040E1F700C000000E94A5008EEA91E010
:100860000E94BE006A2D80E00E949B008AEB91E00E
:100870000E94BE009FE72AE186E091502040804020
:10088000E1F700C00000A5CD97FB072E16F40094F9
:1008900007D077FD09D00E94580407FC05D03EF42C
:1008A000909581959F4F0895709561957F4F08951C
:1008B000AA1BBB1B51E107C0AA1FBB1FA617B70786
:1008C00010F0A61BB70B881F991F5A95A9F78095A2
:1008D0009095BC01CD0108958F929F92AF92BF92E7
:1008E000CF92DF92EF92FF92CF93DF93EC0168817A
:1008F00079818A819B81611571058105910521F4BA
:1009000064E279ED8BE597E02DE133EF41E050E0D3
:100910000E94C80449015A019B01AC01A7EAB1E455
:100920000E94E7046B017C01ACEEB4EFA5019401D9
:100930000E94F504DC01CB018C0D9D1DAE1DBF1D79
:10094000B7FF03C00197A109B04888839983AA83A0
:10095000BB839F77DF91CF91FF90EF90DF90CF9097
:10096000BF90AF909F908F9008950E946C0408955F
:1009700080E690E00E946C040895A0E0B0E08093CF
:10098000600090936100A0936200B09363000895AB
:10099000052E97FB1EF400940E94DF0457FD07D03C
:1009A0000E94FA0407FC03D04EF40C94DF04509527
:1009B0004095309521953F4F4F4F5F4F089590954B
:1009C0008095709561957F4F8F4F9F4F08950E943E
:1009D0001C05A59F900DB49F900DA49F800D911DA7
:1009E00011240895B7FF0C94E7040E94E704821BCA
:1009F000930B0895A1E21A2EAA1BBB1BFD010DC08B
:100A0000AA1FBB1FEE1FFF1FA217B307E407F507BE
:100A100020F0A21BB30BE40BF50B661F771F881F9A
:100A2000991F1A9469F760957095809590959B0130
:100A3000AC01BD01CF010895A29FB001B39FC001D9
:100A4000A39F700D811D1124911DB29F700D811DFA
:0A0A50001124911D0895F894FFCFC2
:100A5A00010000002B2D782F3D33363930323538DE
:100A6A00633134374375616E746F732063756164E3
:100A7A00726F733F004573636F6E64657265200021
:100A8A0054752064656265732062757363617200D0
:100A9A0020637561647269746F732E00322066690F
:100AAA006C61732028312C322900313020636F6C3D
:100ABA00732028302D39290050726573696F6E6171
:100ACA00202B007061726120636F6E74696E7561AC
:100ADA00722E2E2E00547261746120646520006D9E
:100AEA00656D6F72697A61722E2E2E00437561648C
:100AFA007269746F20002C005469656E657320005A
:100B0A00696E74656E746F7300496E74656E746F86
:100B1A0020002028004163696572746F00596120C2
:100B2A0065737461626121004375696461646F2150
:100B3A002121004E6F20657869737465206C756792
:100B4A006172004572726F72005469656E65732036
:100B5A00657863656C656E746520006D656D6F728E
:100B6A006961202121210047616E61737465212129
:100B7A00210046656C696369646164657321005488
:100B8A0075206D656D6F726961206E6F20657320C7
:100B9A000074616E206275656E61203D28005065A3
:100BAA0072646973746521212100496E74656E74DB
:0C0BBA0061206465206E7565766F000098
:00000001FF
