:100000000C942A000C9447000C9447000C94470071
:100010000C9447000C9447000C9447000C94470044
:100020000C9447000C9447000C9447000C94470034
:100030000C9447000C9447000C9447000C94470024
:100040000C9447000C9447000C9447000C94B302A6
:100050000C94470011241FBECFE5D4E0DEBFCDBF16
:1000600011E0A0E6B0E0EEE6F7E002C005900D92E8
:10007000AE36B107D9F721E0AEE6B1E001C01D927E
:10008000A837B207E1F70E9464010C94B5030C9401
:100090000000AE9A00C0AE980895CF93DF93D82F9A
:1000A000662311F0AC9A01C0AC98AD9884B38F6010
:1000B00084BBC5B3C07F8D2F82958F708C2B85BB81
:1000C0000E944900DF70DC2BD5BB0E944900CF6045
:1000D000C5BBDF91CF910895882311F0AC9A01C080
:1000E000AC98AD9A84B3807F84BBAE9A00C093B3C2
:1000F000AE9800C0AE9A00C023B32F70892F8295AE
:10010000807FAE98822B089580E00E946C00882347
:10011000DCF382E090E00197F1F780E00E946C0050
:100120000895CF93C82F0E94840060E08C2F0E9416
:100130004D00CF910895611104C080580E94910034
:10014000089580540E949100089581E00E949100DA
:100150000895CF93C82F0E948400CA3049F4803498
:1001600010F080E001C080E480580E94910004C03B
:1001700061E08C2F0E944D00CF910895CF93DF93C3
:10018000EC012196FC018081882329F00E94A900BE
:1001900089918111FBCFDF91CF9108951F93CF9368
:1001A000DF93182F84B38F6784BB80E89EE30197A9
:1001B000F1F7A99AA89A0E94490080E893E1019773
:1001C000F1F70E944900C0E4D0E0CE010197F1F7B9
:1001D0000E944900CE010197F1F7A8980E944900BA
:1001E0002197F1F788E20E94910088E00E94910037
:1001F0000E94A50086E00E949100812F0E9491003C
:10020000DF91CF911F9108958DEF9BEF27EF3FEE88
:1002100088BB0000B59905C0B59BFECF80916500F5
:100220000895B69905C0B69BFECF809166000895EB
:10023000B79905C0B79BFECF80916700089598BB22
:100240000000B59905C0B59BFECF80916900089567
:10025000B69905C0B69BFECF80916A000895B79904
:1002600005C0B79BFECF80916B00089528BB0000AE
:10027000B59905C0B59BFECF80916D000895B699E4
:1002800005C0B69BFECF80916E000895B79905C05A
:10029000B79BFECF80916F00089538BB0000B599E1
:1002A00005C0B59BFECF809171000895B69905C039
:1002B000B69BFECF809172000895B799A9CFB79BE6
:1002C000FECF80917300089511BACFEFC2BB78942E
:1002D0008CE00E94CE008FE187BB83E088BF82E084
:1002E00089BF81E68CBF12BECABB0F2EFFE09F2ED6
:1002F000F02DDDE00F2EFAE0CF2ED12CF02D0F2EB9
:10030000F3E7EF2EF1E0FF2EF02D0F2EFDEC8F2EF8
:10031000F02D12BE109274011092750110927301AB
:100320009BBA60E080E00E949B0084E790E00E941E
:10033000BE0061E080E00E949B0085E890E00E94A2
:10034000BE002FE38DE093E0215080409040E1F724
:1003500000C0000060E080E00E949B0086E990E021
:100360000E94BE0061E080E00E949B0087EA90E06E
:100370000E94BE00EFE3FDE023E0E150F0402040AA
:10038000E1F700C0000060E080E00E949B0088EB85
:1003900090E00E94BE0061E080E00E949B0089EC3A
:1003A00090E00E94BE008FE39DE0E3E0815090402A
:1003B000E040E1F700C0000060E080E00E949B00A8
:1003C0008AED90E00E94BE0061E080E00E949B0008
:1003D0008BEE90E00E94BE00FFE32DE083E0F15041
:1003E00020408040E1F700C0000060E080E00E9413
:1003F0009B008CEF90E00E94BE0061E080E00E94D4
:100400009B008DE091E00E94BE00809B07C0809120
:1004100077018F5F809377018099F9CF0E94A500C3
:1004200060E080E00E949B008EE191E00E94BE00AF
:1004300061E080E00E949B001092730110927501B0
:10044000D3BF0EE611E05801C0E08091770190E043
:100450000E9447030E944203B6010E94CE02F501AA
:1004600081935F01805D0E94A900C43020F48FE277
:1004700091E00E94BE00809177018F5F80937701A9
:10048000CF5FC53011F7109274010E940401809370
:1004900076018BBBF80191918F01809176019813C1
:1004A00005C0809174018F5F80937401E016F1069E
:1004B00061F78799FECF879BFECF83B70E94A50087
:1004C00060E080E00E949B00809174018530A9F576
:1004D00082E391E00E94BE0061E080E00E949B0008
:1004E0008CE391E00E94BE0080917501889D812D72
:1004F0001124869586958695805D0E94A90080913D
:100500007501889D912D1124969596959695990F34
:10051000292F220F220F920F891B805D0E94A900B4
:100520008AE30E94A90080917301805D0E94A90066
:1005300087E491E00E94BE000CC08AE491E00E9432
:10054000BE0061E080E00E949B008CE591E00E948B
:10055000BE00FFE72AE186E0F15020408040E1F74D
:1005600000C00000D6CE1F920F920FB60F9211243A
:100570008F93809173018F5F8A3019F0809373019C
:1005800007C010927301809175018F5F8093750190
:100590008F910F900FBE0F901F90189597FB072E0D
:1005A00016F4009407D077FD09D00E94E20207FC00
:1005B00005D03EF4909581959F4F08957095619573
:1005C0007F4F0895AA1BBB1B51E107C0AA1FBB1F89
:1005D000A617B70710F0A61BB70B881F991F5A95CF
:1005E000A9F780959095BC01CD0108958F929F92B7
:1005F000AF92BF92CF92DF92EF92FF92CF93DF93B1
:10060000EC01688179818A819B8161157105810581
:10061000910521F464E279ED8BE597E02DE133EF6C
:1006200041E050E00E94520349015A019B01AC0194
:10063000A7EAB1E40E9471036B017C01ACEEB4EF58
:10064000A50194010E947F03DC01CB018C0D9D1D4F
:10065000AE1DBF1DB7FF03C00197A109B048888335
:100660009983AA83BB839F77DF91CF91FF90EF900F
:10067000DF90CF90BF90AF909F908F9008950E9491
:10068000F602089580E690E00E94F6020895A0E048
:10069000B0E08093600090936100A0936200B093FB
:1006A00063000895052E97FB1EF400940E946903D1
:1006B00057FD07D00E94840307FC03D04EF40C942E
:1006C000690350954095309521953F4F4F4F5F4FAF
:1006D000089590958095709561957F4F8F4F9F4FAE
:1006E00008950E94A603A59F900DB49F900DA49F0E
:1006F000800D911D11240895B7FF0C9471030E9481
:100700007103821B930B0895A1E21A2EAA1BBB1B37
:10071000FD010DC0AA1FBB1FEE1FFF1FA217B307CD
:10072000E407F50720F0A21BB30BE40BF50B661FE3
:10073000771F881F991F1A9469F7609570958095A7
:1007400090959B01AC01BD01CF010895A29FB0011E
:10075000B39FC001A39F700D811D1124911DB29FF5
:0E076000700D811D1124911D0895F894FFCF96
:10076E00010000000A0A000A0A0708090A04050621
:10077E000A0102034D65646972656D6F73207475AD
:10078E0020202020007265616363696F6E2E202029
:10079E0020202020200044656265732070726573EE
:1007AE00696F6E61722000494E4943494F202020E7
:1007BE00202020202020200050726573696F6E610A
:1007CE00206C6F7320202020006E756D65726F7324
:1007DE0020656E206F7264656E004C7565676F20C4
:1007EE0070726573696F6E61202000444554454EEA
:1007FE004552202020202020202020004C69737498
:10080E006F3F202020202020202020200054652013
:10081E0065737065726F2E2E2E20202020004C6F77
:10082E0073206E756D65726F7320736F6E3A002C48
:10083E0020004D7579206269656E210054617264E5
:10084E00617374653A20003073004C6F73206E75BF
:10085E006D65726F732020202020200065737461F7
:0E086E006E206D616C203A2820202020200092
:00000001FF
