S00C0000554152542E73726563DC
S11300000C942A000C9434000C9434000C943400A6
S11300100C9434000C9434000C9434000C9434008C
S11300200C9434000C9434000C9434000C9434007C
S11300300C9434000C9434000C9434000C9434006C
S11300400C9434000C9434000C9434000C9434005C
S11300500C94340011241FBECFE5D4E0DEBFCDBF25
S11300600E9440000C9450000C94000020E22BB934
S11300702AB128602AB926E020BD90BD89B9089527
S11300808CE090E00E94360081E48CB92FE986E888
S113009091E0215080409040E1F700C00000F4CF8F
S10700A0F894FFCFFE
S9030000FC
