S0160000496E74657272707574735F4469652E737265635D
S11300000C942A000C9466000C9447000C9447004E
S11300100C9447000C9447000C9447000C94470040
S11300200C9447000C9447000C9447000C94470030
S11300300C9447000C9447000C9447000C94470020
S11300400C9447000C9447000C9447000C94470010
S11300500C94470011241FBECFE5D4E0DEBFCDBF12
S113006020E0A4E6B0E001C01D92A736B207E1F794
S113007010E0A0E6B0E0E6E8F3E002C005900D92DF
S1130080A436B107D9F70E9449000C94C1010C941D
S1130090000011BA12BA8FEF8ABB87BB18BA1BBA19
S11300A078948AB780648ABF8BB780648BBF85B726
S11300B0807F85BF109264008091650090916600F6
S11300C001969093660080936500F6CF1F920F927D
S11300D00FB60F9211242F933F934F935F936F9317
S11300E07F938F939F93AF93BF93EF93FF932FEFE0
S11300F080E792E0215080409040E1F700C000008A
S1130100829BFECF2FEF80E792E021508040904009
S1130110E1F700C0000080916400811106C0809165
S11301206500909166000E9453010E944E0166E0B2
S113013070E00E94DA008F5F809364008091640015
S11301408330A1F028F4813049F0823059F021C085
S11301508530B1F080F08630C1F01BC080E18BBBEC
S113016018BA17C084E48BBB18BA13C081E18BBBE7
S113017081E088BB0EC085E48BBB81E088BB09C0ED
S113018085E58BBB81E088BB04C08DE68BBB81E039
S113019088BBFF91EF91BF91AF919F918F917F9118
S11301A06F915F914F913F912F910F900FBE0F90E0
S11301B01F90189597FB072E16F4009407D077FD2F
S11301C009D00E94EE0007FC05D03EF4909581957D
S11301D09F4F0895709561957F4F0895AA1BBB1B8F
S11301E051E107C0AA1FBB1FA617B70710F0A61B33
S11301F0B70B881F991F5A95A9F780959095BC0154
S1130200CD0108958F929F92AF92BF92CF92DF92C9
S1130210EF92FF92CF93DF93EC01688179818A8119
S11302209B81611571058105910521F464E279EDE5
S11302308BE597E02DE133EF41E050E00E945E0151
S113024049015A019B01AC01A7EAB1E40E947D0176
S11302506B017C01ACEEB4EFA50194010E948B010B
S1130260DC01CB018C0D9D1DAE1DBF1DB7FF03C06E
S11302700197A109B04888839983AA83BB839F7798
S1130280DF91CF91FF90EF90DF90CF90BF90AF9030
S11302909F908F9008950E940201089580E690E057
S11302A00E9402010895A0E0B0E080936000909362
S11302B06100A0936200B09363000895052E97FB3C
S11302C01EF400940E94750157FD07D00E9490010E
S11302D007FC03D04EF40C9475015095409530956D
S11302E021953F4F4F4F5F4F08959095809570959E
S11302F061957F4F8F4F9F4F08950E94B201A59F34
S1130300900DB49F900DA49F800D911D112408950C
S1130310B7FF0C947D010E947D01821B930B08950D
S1130320A1E21A2EAA1BBB1BFD010DC0AA1FBB1FF5
S1130330EE1FFF1FA217B307E407F50720F0A21B67
S1130340B30BE40BF50B661F771F881F991F1A94D4
S113035069F760957095809590959B01AC01BD01FE
S1130360CF010895A29FB001B39FC001A39F700D58
S1130370811D1124911DB29F700D811D1124911DA9
S10903800895F894FFCF7C
S1070386010000006E
S9030000FC
