:100000000C942A000C9447000C9447000C94470071
:100010000C9447000C9447000C9447000C94470044
:100020000C9447000C9447000C9447000C94470034
:100030000C9447000C9447000C9447000C94470024
:100040000C9447000C9447000C9447000C947401E6
:100050000C94470011241FBECFE5D4E0DEBFCDBF16
:1000600010E0A0E6B0E0EAE1F3E002C005900D92F6
:10007000A237B107D9F720E0A2E7B0E001C01D9296
:10008000A337B207E1F70E9420010C948B010C9476
:10009000000085B3806485BB00C085B38F7B85BBC2
:1000A0000895CF93DF93D82F662321F085B3806125
:1000B00085BB03C085B38F7E85BB85B38F7D85BB34
:1000C00084B38F6084BBC5B3C07F8D2F82958F7042
:1000D0008C2B85BB0E944900DF70DC2BD5BB0E94B6
:1000E0004900CF60C5BBDF91CF910895882321F0EF
:1000F00085B3806185BB03C085B38F7E85BB85B327
:10010000806285BB84B3807F84BB85B3806485BBFC
:1001100000C093B39295907F85B38F7B85BB00C061
:1001200085B3806485BB00C083B38F7025B32F7BFC
:1001300025BB892B089580E00E9476008823DCF39C
:1001400084E090E00197F1F780E00E947600089546
:10015000CF93C82F0E949B0060E08C2F0E9451001B
:10016000CF910895611104C080580E94A80008959D
:1001700080540E94A800089581E00E94A80008957C
:10018000CF93C82F0E949B00CA3049F4803410F4EA
:1001900080E401C080E080580E94A80004C061E0B3
:1001A0008C2F0E945100CF910895CF93DF93FC01D3
:1001B00003C00E94C000FE01EF01219680818111E1
:1001C000F8CFDF91CF9108951F93CF93DF93182F2E
:1001D00084B38F6784BB80E09DE70197F1F785B317
:1001E000826085BB85B3816085BB0E94490080E049
:1001F00097E20197F1F70E944900C0E8D0E0CE01F4
:100200000197F1F70E944900CE010197F1F785B3FC
:100210008E7F85BB0E9449002197F1F788E20E94FA
:10022000A80088E00E94A8000E94BC0086E00E940E
:10023000A800812F0E94A800DF91CF911F910895FF
:1002400082E08ABB91E09BBB89BF89EF8CBF8CE0C9
:1002500083BF0E94E400109272007894C0E0DFEF48
:10026000C899FECF2FE788E391E02150804090406D
:10027000E1F700C00000C89BFECF2FE788E391E0C4
:10028000215080409040E1F700C000008091720052
:10029000811110C0DF301CF4DF5FC0E019C060E0E6
:1002A00080E00E94B20080E690E00E94D500C0E0AD
:1002B000DFEFD6CF81E08C0FCFE48C9FC12D1124CE
:1002C000C695C695C6952AE1C29F80191124C82FEC
:1002D00060E08D2F0E94B20081E48C0F0E94C0006C
:1002E0008DE780937200BCCF1F920F920FB60F92D2
:1002F00011248F9380917200882339F0C89B05C028
:10030000809172008150809372008F910F900FBE88
:0A0310000F901F901895F894FFCF8E
:10031A0020202020202020202020202020202020D3
:02032A000000D1
:00000001FF
