S0130000656570726F6D546F4164632E73726563BE
S11300000C942A000C9447000C9447000C9447006D
S11300100C9447000C9447000C9447000C94470040
S11300200C9447000C9447000C9447000C94470030
S11300300C9447000C9447000C94A4020C944700C1
S11300400C9447000C9447000C9447000C94E30272
S11300500C94470011241FBECFE5D4E0DEBFCDBF12
S113006010E0A0E6B0E0ECE2F6E002C005900D92EC
S1130070A43AB107D9F720E0A4EAB0E001C01D9288
S1130080A73AB207E1F70E948E020C9414030C9471
S1130090000080EF81BB8FEF82BB089590E081E088
S11300A029C047E050E0491B510921E030E002C07B
S11300B0220F331F4A95E2F7209522BB000020B39C
S11300C0322F3F703F30A1F0E3EDF0E33197F1F7C9
S11300D000C0000023FF11C022FD02C08F5F0895FD
S11300E021FD02C08E5F089520FD02C08D5F08953A
S11300F08C5F9F5F9430A8F280E008950E944E00C8
S11301008111FCCF83ED90E30197F1F700C000006B
S11301100895CF930E944E00C82F8823D9F30E94DC
S11301207E008C2FCF91089585B3806485BB00C079
S113013085B38F7B85BB0895CF93DF93D82F662338
S113014021F085B3806185BB03C085B38F7E85BBF9
S113015085B38F7D85BB84B38F6084BBC5B3C07FFB
S11301608D2F82958F708C2B85BB0E949400DF703D
S1130170DC2BD5BB0E949400CF60C5BBDF91CF912F
S11301800895882321F085B3806185BB03C085B3BE
S11301908F7E85BB85B3806285BB84B3807F84BB3F
S11301A085B3806485BB00C093B39295907F85B37B
S11301B08F7B85BB00C085B3806485BB00C083B3DF
S11301C08F7025B32F7B25BB892B089580E00E9477
S11301D0C1008823DCF300C080E00E94C1000895C0
S11301E0CF93C82F0E94E60060E08C2F0E949C00F1
S11301F0CF910895611104C080580E94F0000895C1
S113020080540E94F000089581E00E94F000089557
S1130210CF93C82F0E94E600CA3049F4803410F40A
S113022080E401C080E080580E94F00004C061E0D6
S11302308C2F0E949C00CF910895CF93DF93FC01F3
S113024003C00E940801FE01EF0121968081811103
S1130250F8CFDF91CF9108951F93CF93DF93182F99
S113026084B38F6784BB80EA9FE00197F1F785B37D
S1130270826085BB85B3816085BB0E94940080EE5B
S113028094E00197F1F70E949400C0E1D0E0CE0120
S11302900197F1F70E949400CE010197F1F785B31D
S11302A08E7F85BB0E9494002197F1F788E20E941B
S11302B0F00088E00E94F0000E94040186E00E94A1
S11302C0F000812F0E94F000DF91CF911F910895DB
S11302D0FF920F931F93CF93DF93789460E080E0B5
S11302E00E94FA0080E690E00E941D0161E080E037
S11302F00E94FA0080E690E00E941D0160E080E028
S11303000E94FA0081E790E00E941D011092A5006E
S11303101092A4001092A6000E9489008E3021F051
S11303208091A6008823C1F3F8948091A6008823C5
S113033091F060E080E00E94FA008DE790E00E9476
S11303401D012FEB37E289E0215030408040E1F776
S113035000C00000DDC0C091A400D091A500219789
S1130360C11592E0D90790F060E080E00E94FA00A5
S11303708AE890E00E941D012FEB37E289E02150CA
S113038030408040E1F700C00000C2C060E080E07F
S11303900E94FA0087E990E00E941D0161E080E07C
S11303A00E94FA008C2F0E94FB02F82E89E2F89E2C
S11303B0812D11241DEC82958F70805D0E940801AF
S11303C0F19E012D1124069506950695019F112D88
S11303D01124169516951695110F812F880F880FE5
S11303E0180F802F811B805D0E940801000F802F51
S11303F0880F880F080F8F2D801B805D0E940801D5
S113040061E08DE00E94FA009E01369527953695AD
S11304102795ABE7B4E10E940503AC0156954795D7
S11304209A01ADECBCEC0E940503969587959695D0
S11304308795969587959C01220F331F880F991FE6
S1130440880F991F880F991F820F931F9A01281BE9
S1130450390BC901805D0E9408019E01ADECBCEC22
S11304600E9405038C011695079516950795169518
S1130470079598010E94050396958795969587950B
S1130480969587959C01220F331F880F991F880F1B
S1130490991F880F991F820F931F9801281B390BEE
S11304A0C901805D0E940801C801880F991F000FCF
S11304B0111F000F111F000F111F080F191FCE016C
S11304C0801B910B805D0E9408010E94890093EFBC
S11304D0980F933008F080E08D3019F4209709F4D8
S11304E080E08F3051F42091A4003091A500215078
S11304F03109C217D30709F480E0882331F38D3022
S113050009F421978F3009F421968E3009F03ECFFB
S1130510DF91CF911F910F91FF90089580E687B9E5
S11305209BEA96B980BF8DE083BF84EF8CBF82E0E5
S113053089BF81E087BB78948CE00E942C010E94E3
S113054049000E946801FDCF1F920F920FB60F92CF
S113055011242F933F934F935F936F937F938F93C4
S11305609F93AF93BF93EF93FF938091A4009091D7
S1130570A5008115924031F486B18F7D86B981E062
S11305808093A60065B18091A4009091A5000E947B
S1130590ED028091A4009091A50001969093A5008E
S11305A08093A400FF91EF91BF91AF919F918F91A0
S11305B07F916F915F914F913F912F910F900FBE5B
S11305C00F901F9018951F920F920FB60F9211243F
S11305D00F900FBE0F901F901895E199FECF9FBB0F
S11305E08EBB6DBBF8948CB384608CBB8CB382607F
S11305F08CBB78940895E199FECF90E09FBB8EBBAD
S11306008CB381608CBB8DB30895A29FB001B39F5E
S1130610C001A39F700D811D1124911DB29F700D07
S10F0620811D1124911D0895F894FFCF52
S113062C20202020202020202020202020202020BA
S113063C0053656E73616E646F2E2E2E004545500B
S113064C524F4D206C6C656E6100454550524F4DB8
S113065C20766163696100556C74696D6F732076E3
S107066C616C730046
S9030000FC
