S01100005072616374696361332E73726563B9
S11300000C942A000C943F000C943F000C943F0085
S11300100C943F000C943F000C943F000C943F0060
S11300200C943F000C943F000C943F000C943F0050
S11300300C943F000C943F000C943F000C943F0040
S11300400C943F000C943F000C943F000C943F0030
S11300500C943F0011241FBECFE5D4E0DEBFCDBF1A
S113006010E0A0E6B0E0E6EFF1E002C005900D92EA
S1130070A836B107D9F70E94EA000C94F9000C9451
S11300800000AE9A00C0AE980895CF93DF93D82FA6
S1130090662311F0AC9A01C0AC98AD9884B38F601C
S11300A084BBC5B3C07F8D2F82958F708C2B85BB8D
S11300B00E944100DF70DC2BD5BB0E944100CF6061
S11300C0C5BBDF91CF910895AC98AD9A84B3807F7E
S11300D084BBAE9A00C093B3AE9800C0AE9A00C081
S11300E023B32F70892F8295807FAE98822B089539
S11300F00E94640087FDFCCF84E090E00197F1F753
S11301000C946400CF93C82F0E94780060E08C2F79
S1130110CF910C944500611102C0805801C08054F5
S11301200C94820081E00C948200CF93C82F0E942B
S11301307800CA3049F4803410F080E001C080E4D3
S11301408058CF910C94820061E08C2FCF910C9455
S11301504500CF93DF93EC018991882319F00E9425
S11301609500FACFDF91CF9108951F93CF93DF933A
S1130170182F84B38F6784BB80E09DE70197F1F764
S1130180A99AA89A0E94410080E097E20197F1F7AA
S11301900E944100C0E8D0E0CE010197F1F70E942F
S11301A04100CE010197F1F7A8980E9441002197E0
S11301B0F1F788E20E94820088E00E9482000E9497
S11301C0920086E00E948200812FDF91CF911F91DF
S11301D00C9482008CE00E94B50061E080E00E94F3
S11301E08B0080E690E00E94A90085E30E949500C0
S10901F0FFCFF894FFCFDD
S10B01F6486563746F72000098
S9030000FC
