:100000000C942A000C943F000C943F000C943F0089
:100010000C943F000C943F000C943F000C943F0064
:100020000C943F000C943F000C943F000C943F0054
:100030000C943F000C943F000C943F000C943F0044
:100040000C943F000C943F000C943F000C943F0034
:100050000C943F0011241FBECFE5D4E0DEBFCDBF1E
:1000600010E0A0E6B0E0E0E3F2E002C005900D92FF
:10007000A836B107D9F70E940E010C9416010C9412
:10008000000085B3806485BB00C085B38F7B85BBD2
:100090000895CF93DF93D82F662321F085B3806135
:1000A00085BB03C085B38F7E85BB85B38F7D85BB44
:1000B00084B38F6084BBC5B3C07F8D2F82958F7052
:1000C0008C2B85BB0E944100DF70DC2BD5BB0E94CE
:1000D0004100CF60C5BBDF91CF910895882321F007
:1000E00085B3806185BB03C085B38F7E85BB85B337
:1000F000806285BB84B3807F84BB85B3806485BB0D
:1001000000C093B39295907F85B38F7B85BB00C071
:1001100085B3806485BB00C083B38F7025B32F7B0C
:1001200025BB892B089580E00E946E008823DCF3B4
:1001300084E090E00197F1F780E00E946E0008955E
:10014000CF93C82F0E94930060E08C2F0E9449003B
:10015000CF91089581E00E94A0000895CF93C82F09
:100160000E949300CA3049F4803410F480E401C046
:1001700080E080580E94A00004C061E08C2F0E94A3
:100180004900CF910895CF93DF93FC0103C00E94F3
:10019000AE00FE01EF01219680818111F8CFDF9141
:1001A000CF9108951F93CF93DF93182F84B38F6758
:1001B00084BB80E09DE70197F1F785B3826085BB42
:1001C00085B3816085BB0E94410080E097E2019782
:1001D000F1F70E944100C0E8D0E0CE010197F1F7AD
:1001E0000E944100CE010197F1F785B38E7F85BB58
:1001F0000E9441002197F1F788E20E94A00088E068
:100200000E94A0000E94AA0086E00E94A000812F08
:100210000E94A000DF91CF911F9108958CE00E9471
:10022000D20080E690E00E94C300FFCFF894FFCF99
:08023000486563746F72000061
:00000001FF
