S00C000073696E652E7372656369
S11300000C942A000C9447000C9447000C9447006D
S11300100C9447000C9447000C9447000C94470040
S11300200C9447000C945C000C9447000C9447001B
S11300300C9447000C9447000C9447000C94470020
S11300400C9447000C9447000C9447000C94470010
S11300500C94470011241FBECFE5D4E0DEBFCDBF12
S113006011E0A0E6B0E0E4EFF0E002C005900D92EC
S1130070A036B107D9F721E0A0E6B1E001C01D9296
S1130080A136B207E1F70E9449000C9478000C9461
S113009000001092600180E88CBF81E089BF89E68E
S11300A083BF789487B3886087BB81B3816081BB49
S11300B082B3816082BBFFCF1F920F920FB60F9263
S11300C011248F93EF93FF93809160018F5F80934E
S11300D06001E0916001F0E0E05AFF4F80818CBF45
S11300E0FF91EF918F910F900FBE0F901F90189575
S10700F0F894FFCFAE
S11300F47F8285888B8F9295989B9EA1A4A7AAAD95
S1130104B0B3B6B8BBBEC1C3C6C8CBCDD0D2D5D7A5
S1130114D9DBDDE0E2E4E5E7E9EBECEEEFF1F2F460
S1130124F5F6F7F8F9FAFBFBFCFDFDFEFEFEFEFE18
S1130134FFFEFEFEFEFEFDFDFCFBFBFAF9F8F7F6FE
S1130144F5F4F2F1EFEEECEBE9E7E5E4E2E0DDDB14
S1130154D9D7D5D2D0CDCBC8C6C3C1BEBBB8B6B32C
S1130164B0ADAAA7A4A19E9B9895928F8B888582F3
S11301747F7C7976736F6C696663605D5A575451FA
S11301844E4B484643403D3B383633312E2C2927C9
S11301942523211E1C1A1917151312100F0D0C0AEE
S11301A40908070605040303020101000000000016
S11301B4000000000000010102030304050607080F
S11301C4090A0C0D0F1012131517191A1C1E2123DA
S11301D42527292C2E313336383B3D404346484BA2
S11301E44E5154575A5D606366696C6F7376797CBB
S9030000FC
