:100000000C942A000C943F000C943F000C943F0089
:100010000C943F000C943F000C943F000C943F0064
:100020000C943F000C943F000C943F000C943F0054
:100030000C943F000C943F000C943F000C943F0044
:100040000C943F000C943F000C943F000C943F0034
:100050000C943F0011241FBECFE5D4E0DEBFCDBF1E
:1000600010E0A0E6B0E0E6E2F3E002C005900D92F9
:10007000AE37B107D9F70E9452010C9491010C944C
:10008000000085B3806485BB00C085B38F7B85BBD2
:100090000895CF93DF93D82F662321F085B3806135
:1000A00085BB03C085B38F7E85BB85B38F7D85BB44
:1000B00084B38F6084BBC5B3C07F8D2F82958F7052
:1000C0008C2B85BB0E944100DF70DC2BD5BB0E94CE
:1000D0004100CF60C5BBDF91CF910895882321F007
:1000E00085B3806185BB03C085B38F7E85BB85B337
:1000F000806285BB84B3807F84BB85B3806485BB0D
:1001000000C093B39295907F85B38F7B85BB00C071
:1001100085B3806485BB00C083B38F7025B32F7B0C
:1001200025BB892B089580E00E946E008823DCF3B4
:1001300084E090E00197F1F780E00E946E0008955E
:10014000CF93C82F0E94930060E08C2F0E9449003B
:10015000CF910895611104C080580E94A0000895B5
:1001600080540E94A000089581E00E94A00008959C
:10017000CF93C82F0E949300CA3049F4803410F402
:1001800080E401C080E080580E94A00004C061E0CB
:100190008C2F0E944900CF910895CF93DF93FC01EB
:1001A00003C00E94B800FE01EF01219680818111F9
:1001B000F8CFDF91CF9108951F93CF93DF93182F3E
:1001C00084B38F6784BB80E09DE70197F1F785B327
:1001D000826085BB85B3816085BB0E94410080E061
:1001E00097E20197F1F70E944100C0E8D0E0CE010C
:1001F0000197F1F70E944100CE010197F1F785B315
:100200008E7F85BB0E9441002197F1F788E20E9412
:10021000A00088E00E94A0000E94B40086E00E9436
:10022000A000812F0E94A000DF91CF911F9108951F
:1002300080EF8ABB8FEF8BBB089590E080E02EC0EB
:10024000492F50E04C5F5F4F21E030E002C0220FA9
:10025000331F4A95E2F720952BBB000029B3322FBC
:100260003F703F30C9F03FE748E351E03150404034
:100270005040E1F700C0000020FD02C08F5F0895EC
:1002800021FD02C08E5F089522FD02C08D5F08959A
:1002900023FD02C08C5F08958C5F9F5F943080F2D5
:1002A00080E008950E9418018CE00E94DC00D0E0FC
:1002B000C0E003C00E941D01C82FCC23D9F3C43075
:1002C00071F460E080E00E94AA0080E690E00E9465
:1002D000CD0060E080E00E94AA00D0E01FC0CC30DA
:1002E00079F4DD23D9F0D15060E08D2F0E94AA006F
:1002F00080E20E94B80060E08D2F0E94AA000EC02C
:10030000DA3060F4EC2FF0E0E559FF4F80810E9475
:10031000B800DF5F03C00E941D01C82FC111FBCFD1
:06032000CCCFF894FFCFE2
:100326002020202020202020202000203134372AA1
:0E03360032353830333639344139383700002B
:00000001FF
