:100000000C942A000C9447000C9447000C94470071
:100010000C9447000C9447000C9447000C94470044
:100020000C9447000C9447000C9447000C94470034
:100030000C9447000C9447000C9447000C94470024
:100040000C9447000C9447000C9447000C94470014
:100050000C94470011241FBECFE5D4E0DEBFCDBF16
:1000600010E0A0E6B0E0E0E7F5E002C005900D92F8
:10007000A237B107D9F720E0A2E7B0E001C01D9296
:10008000A437B207E1F70E940D020C94B6020C945B
:10009000000080EF81BB8FEF82BB089590E081E08C
:1000A00029C047E050E0491B510921E030E002C07F
:1000B000220F331F4A95E2F7209522BB000020B3A0
:1000C000322F3F703F30A1F0E3EDF0E33197F1F7CD
:1000D00000C0000023FF11C022FD02C08F5F089501
:1000E00021FD02C08E5F089520FD02C08D5F08953E
:1000F0008C5F9F5F9430A8F280E008950E944E00CC
:100100008111FCCF83ED90E30197F1F700C000006F
:100110000895CF930E944E00C82F8823D9F30E94E0
:100120007E008C2FCF910895E82FF0E0E15AFF4F29
:100130008081089585B3806485BB00C085B38F7BC3
:1001400085BB0895CF93DF93D82F662321F085B325
:10015000806185BB03C085B38F7E85BB85B38F7DF2
:1001600085BB84B38F6084BBC5B3C07F8D2F829560
:100170008F708C2B85BB0E949A00DF70DC2BD5BB67
:100180000E949A00CF60C5BBDF91CF91089588236C
:1001900021F085B3806185BB03C085B38F7E85BBAD
:1001A00085B3806285BB84B3807F84BB85B3806464
:1001B00085BB00C093B39295907F85B38F7B85BB41
:1001C00000C085B3806485BB00C083B38F7025B346
:1001D0002F7B25BB892B089580E00E94C7008823D0
:1001E000DCF300C080E00E94C7000895CF93C82FC1
:1001F0000E94EC0060E08C2F0E94A200CF91089535
:10020000611104C080580E94F600089580540E9435
:10021000F600089581E00E94F6000895CF93C82F5C
:100220000E94EC00CA3049F4803410F480E401C02C
:1002300080E080580E94F60004C061E08C2F0E948C
:10024000A200CF9108951F93CF93DF93182F84B30B
:100250008F6784BB80EA9FE00197F1F785B38260E6
:1002600085BB85B3816085BB0E949A0080EE94E0D7
:100270000197F1F70E949A00C0E1D0E0CE0101970A
:10028000F1F70E949A00CE010197F1F785B38E7FB6
:1002900085BB0E949A002197F1F788E20E94F60040
:1002A00088E00E94F6000E940A0186E00E94F600A3
:1002B000812F0E94F600DF91CF911F91089560E099
:1002C00080E00E94000140917200509173009A01F9
:1002D000ADECBCEC0E94A702969587959695879504
:1002E000969587959C01220F331F880F991F880FC1
:1002F000991F880F991F820F931F9A01281B390B92
:10030000C901805D0E940E0120917200309173003E
:10031000ADECBCEC0E94A702AC01569547955695F2
:100320004795569547959A010E94A70296958795FD
:1003300096958795969587959C01220F331F880F78
:10034000991F880F991F880F991F820F931F9A0179
:10035000281B390BC901805D0E940E01209172009B
:10036000309173003695279536952795ABE7B4E124
:100370000E94A702AC01569547959A01ADECBCECE2
:100380000E94A7029695879596958795969587954D
:100390009C01220F331F880F991F880F991F880F08
:1003A000991F820F931F9A01281B390BC901805D89
:1003B0000E940E01209172003091730036952795AE
:1003C0003695279536952795A5ECB0E20E94A702B1
:1003D000AC01529542954F7045275F7045279A01B1
:1003E000ADECBCEC0E94A7029695879596958795F3
:1003F000969587959C01220F331F880F991F880FB0
:10040000991F880F991F820F931F9A01281B390B80
:10041000C901805D0E940E0108958CE00E942301B5
:100420000E9449008FEF8ABB81E00E949202909364
:100430007300809372000E945F0183EC99E0019742
:10044000F1F700C000000E9489000E94940040ED76
:10045000480F83EC99E00197F1F700C000004BBB17
:100460004A3048F7E0917200F09173009F01369591
:1004700027953695279536952795A5ECB0E20E94ED
:10048000A702929582958F7089279F70892768EEC1
:1004900073E0869F9001879F300D969F300D112449
:1004A000CF01821B930BBC01660F771F880F991F2A
:1004B000880F991F880F991F680F791F640F711D8E
:1004C000709373006093720081E090E00E94770265
:1004D000B2CFE199FECF9FBB8EBB6DBBF8948CB3BE
:1004E00084608CBB8CB382608CBB789408951F931E
:1004F000CF93DF93EC01162F672F0E946902612FC3
:10050000CE0101960E946902DF91CF911F9108955B
:10051000E199FECF90E09FBB8EBB8CB381608CBB1A
:100520008DB308951F93CF93DF93182F0E948802F5
:10053000C82FD0E0DC2FCC2781E0810F0E948802F9
:100540009E01282BC901DF91CF911F910895A29F91
:10055000B001B39FC001A39F700D811D1124911D97
:10056000B29F700D811D1124911D0895F894FFCF45
:100570003132334134353642373839432A30234417
:02058000000079
:00000001FF
